# blaster_6810.hex
# Version = 1.36
:040000000201BB320C
:01000B0032C2
:0100130032BA
:01001B0032B2
:0100230032AA
:01002B0032A2
:030033000214377D
:01003B003292
:01004B003282
:01005B003272
:01006300326A
:03006B000213F08D
:030073000214086C
:03007B0002141E4E
:0300830002141F45
:03008B0002143A22
:03009300021482D2
:03009B000214CA82
:0300A3000214CB79
:0300AB000214CC70
:0300B3000214CD67
:0300BB000214CE5E
:0300C3000214CF55
:0300CB000214D04C
:0300D3000214D143
:0300DB000214D23A
:0300E3000214D331
:0300EB000214D428
:0300F3000214D51F
:0300FB000214D616
:030103000214D70C
:03010B000214D803
:030113000214D9FA
:03011B000214DAF1
:030123000214DBE8
:03012B000214DCDF
:030133000214DDD6
:03013B000214DECD
:030143000214DFC4
:03014B000214E0BB
:030153000214E1B2
:03015B000214E2A9
:030163000214E3A0
:03016B000214E497
:030173000214E58E
:03017B000214E685
:030183000214E77C
:03018B000214E873
:030193000214E96A
:03019B000214EA61
:0301A3000214EB58
:0301AB000214EC4F
:0301B3000214ED46
:07021400752400752500753B
:06021B0031007532007590
:040221003300C20ED6
:030231000201B611
:0501B60012023480FE7E
:05023400C205C206D264
:0402390007C209C22D
:04023D000AC20BC224
:040241000DC208C220
:0A02450001C20390E680E0440AF0D5
:0E024F009005DC121C3290E680E0FA54F7F0C5
:0E025D0090E6007410F090E60174E3F00000EB
:0E026B00000075AF0790E60BE0FA4403F000C8
:0E02790000000090E6707480F090E603749828
:0E028700F00000000090E6027467F090E6348C
:0E0295007409F090E63574FDF090E6367409B9
:0C02A300F090E63774FDF000000000E56C
:0B02AF0000D2E890E668E04408F09000
:0E02BA00E65CE04401F090E65CE04420F09049
:0E02C800E65CE04410F090E65CE0FA4408F0DA
:0E02D60090E61274A2F00000000090E614748E
:0E02E400E2F00000000090E61374A2F00000AB
:0D02F200000090E61574E2F000000000909E
:0E02FF00E61174A0F00000000090E61074A05C
:0C030D00F000000000753901758202123A
:090319000B98753901758204127C
:090322000B9875390175828612F1
:09032B000B9875390175828812E6
:0D0334000B9890E6187414F0000000009083
:0E034100E61A744CF00000000090E6197414E7
:0E034F00F00000000090E61B744CF00000006F
:0E035D000075B5B70000000075B0A0000000EC
:08036B00007529A0752AA07598
:060373002BA0752CA07503
:060379002DA0752EA075F9
:0A037F002FA07530A090E624740250
:0E038900F00000000090E625E4F090E62674F7
:0E03970002F00000000090E627E4F090E68DF2
:0E03A5007401F00000000090E6827404F00085
:0E03B300000000D2DD00000000C28C758E0339
:0D03C1005389F0438901758A00758C001284
:0A03CE00059EE582601B1205E6752E
:0603D80034407535409031
:0603DE0021DE1205067588
:0603E40034307535109065
:0503EA0022621205066D
:0C03EF0075800200000000300A047A0350
:0203FB0080027E
:0203FD007A0183
:0803FF008AB200000000D2AF39
:050407001006028066F2
:0C040C00C28000000000300C2175B5001B
:0E0418000000000075B2010000000090E60236
:0E0426007498F00000000090E601E4F0000081
:020434000000C6
:0C043600438701300C2A90E60174E3F0CB
:0E0442000000000090E6027467F00000000069
:0C04500075B5B700000000300A047A0304
:02045C0080021C
:02045E007A0121
:060460008AB2000000005A
:0A046600A2089280D20790006412F1
:020470001C323C
:050472001005028003EB
:030477001217CB8E
:0A047A00300920900032121C3212EB
:0D048400050190E680E0440AF09005DC12CE
:0C0491001C3290E680E0FA54F7F0C2093B
:0A049D00300711900064121C32C2F7
:0804A70007753B017582FF128D
:0204AF00123603
:0C04B10090E6A1E0FA20E116E524C395D6
:0504BD0025FABABF00A2
:0A04C200500B30020512109F80035A
:0304CC00120F000C
:0B04CF0090E6A2E0FA30E1030204070F
:0804DA00E524C395257003021F
:0204E20004070D
:0604E4001211FD020407E5
:0A04EA00E582FA24FF9200D207EA2F
:0604F40060047A4880025A
:0204FA007A5234
:0504FC008A82020B736F
:05050100C280C20822C7
:070506008582368583373042
:06050D0004047C51800291
:020513007C501A
:0A0515008C8274022536FCE43537B1
:0A051F00FD8C068D07780085345D21
:05052900755E00853540
:05052E005F756000751F
:03053300610075EF
:03053600623075BB
:0C0539006300C004C005C006C007C0007D
:0E054500121750D000D007D006D005D0047990
:0105530000A7
:0A055400C3E995355027E92400F5AE
:0C055E0082E43430F583E0FA60198E82EC
:0D056A008F8388F0EA121C19A388F0E412B8
:0A0577001C19A3AE82AF830980D3E4
:0E0581007A00C3EC9EED9FEA985011EEC395F0
:07058F0036FEEF9537FF85F2
:070596003682853783EEF089
:01059D00223B
:04059E00C2047561BD
:0505A2003875620075D0
:0605A7006340E4F55DF580
:0405AD005EF55FF5A3
:0C05B100607582501217505004758201D2
:0105BD00221B
:0405BE00D20475618D
:0505C2003875620075B0
:0605C7006340E4F55DF560
:0405CD005EF55FF583
:0C05D100607582511217505004758201B1
:0105DD0022FB
:0805DE00D204D2037582002251
:0705E6003004047A51800289
:0205ED007A5042
:0605EF008A8275610075AF
:0405F5006230E4F597
:0405F90063F55DF554
:0605FD005E755F26E4F5C7
:05060300601217509089
:090608003000E0FABAC0028008DB
:05061100BAC2028003E3
:03061600D20322EA
:0E061900903025E0FA601DEA240550027AFABE
:0C0627009021237480F0902124EAF090D0
:0A063300215B7480F090215CEAF076
:0A063D00903023E0FAA2E4920D9041
:07064700301EE0FBBB0700C1
:08064E009210B3920ABB0800F0
:090656009210B3920BEAA2E592A6
:02065F000C226B
:07066100AA82BA0002806FBB
:06066800BA0903020709B4
:06066E00BA800302070D33
:06067400BA810302074DEC
:06067A00BA8203020750E2
:06068000BA8303020753D8
:06068600BA840302076ABA
:06068C00BA8F030207977C
:06069200BA90030207A06C
:06069800BA91030207F80D
:06069E00BA940302086F8C
:0606A400BA95030208B143
:0606AA00BA96030208BD30
:0606B000BA97030208C91D
:0606B600BAA2030207D8FE
:0606BC00BAA5030207DBF2
:0606C200BAD103020A8B0D
:0606C800BAD203020ACAC7
:0606CE00BADD03020AF18F
:0306D400020B6FA7
:0C06D70090E6BAE0FA6027BA0102800544
:0506E300BA021F800BAC
:0B06E800753900758204120B98801217
:0A06F300753900758288120B9830EB
:0606FD00020675250075E0
:020703002400D0
:0407050075820122D6
:0407090075820122D2
:09070D0090E6BDE06003020B6FF1
:0C071600753B0075820012123690E6BAA6
:0D072200E01392B490E6BAE0FA30E11B75E6
:09072F003900758202120B987565
:090738003900758286120B98202D
:060741000206752500759B
:0207470024008C
:040749007582012292
:03074D00020F0791
:03075000020D6F28
:06075300200D03020B6FF4
:0A07590090E6BAE024FF9201753B20
:07076300017582FF0212364E
:0A076A00300A26753B017582FF126C
:0A0774001236AA2790E740EAF0AA27
:0C077E002890E741EAF090E68AE4F09051
:09078A00E68B7402F07582012275
:040793007582002249
:09079700121B50D20975820122E7
:0A07A00090E6BCE0FABA28028005DA
:0507AA00BA291C800EBD
:0E07AF0090E7407452F090E7417445F0800CE2
:0C07BD0090E7407456F090E7417442F061
:0E07C90090E68AE4F090E68B7402F0758201EF
:0107D70022FF
:0307D800020CA070
:0707DB003004047A018002E2
:0207E2007A009B
:0E07E40090E740EAF090E68AE4F090E68B742D
:0607F20001F075820122F6
:0E07F80090E6BAE0700C90E6FBE0FA90E74065
:04080600F002086094
:0E080A0090E6BAE0FABA012490E6FBE0440260
:0E081800F090E7407401F090E680E0440AF0B2
:0E0826009005DC121C3290E680E0FA54F7F0E8
:02083400802A18
:0E08360090E6BAE0FABA022290E6FBE054FD2A
:0E084400F090E7407402F090E680E0440AF085
:0E0852009005DC121C3290E680E0FA54F7F0BC
:0E08600090E68AE4F090E68B7401F075820158
:01086E002267
:0E086F0090210DE493FA74302A90E740F09047
:0E087D00E741742EF090210CE493FAC4540F5E
:0E088B00FB740F5B243090E742F0740F5A2488
:0E0899003090E743F090E744E4F090E68AF0F8
:0A08A70090E68B7405F075820122C3
:0C08B10090E6BAE0FA90E648F0020B6F07
:0C08BD0090E6BAE0FA90E649F0020B6FFA
:0D08C90090E745E5AAF090E7467412F09024
:0E08D600E7477434F090E6BAE0FA6031BA01F8
:0308E4000280513E
:0608E700BA020302097CC5
:0608ED00BA04030209B386
:0608F300BA06030209EA47
:0608F900BA0803020A2008
:0508FF00BA81028056E1
:06090400BA86030209EAB5
:06090A00BA8803020A2076
:03091000020A5682
:0D09130090E6A0E090E740F090E68AE090CA
:0D092000E741F090E68BE0FA90E742F0909E
:0B092D00E743E4F090E744F0020A7C8E
:0E09380090E6A1E090E740F090E741E4F090F7
:0E094600E68DE0FA90E742F090E743E4F0908F
:06095400E744F0020A7CFA
:0E095A0090E6A2E090E740F090E741E4F090D4
:0E096800E68FE0FA90E742F090E743E4F0906B
:06097600E744F0020A7CD8
:0D097C0090E6A3E090E740F090E690E09058
:0E098900E741F090E691E090E742F090E6AB97
:0E099700E090E743F090E6ACE090E744F0908B
:0E09A500E6837402F0E0FA90E746F0020A7C66
:0D09B30090E6A4E090E740F090E694E0901C
:0E09C000E741F090E695E090E742F090E6AD5A
:0E09CE00E090E743F090E6AEE090E744F09052
:0E09DC00E6837404F0E0FA90E746F0020A7C2D
:0D09EA0090E6A5E090E740F090E698E090E0
:0E09F700E741F090E699E090E742F090E6AF1D
:0E0A0500E090E743F090E6B0E090E744F09018
:0D0A1300E6837416F0E0FA90E746F0805C90
:0D0A200090E6A6E090E740F090E69CE090A4
:0E0A2D00E741F090E69DE090E742F090E6B1E0
:0E0A3B00E090E743F090E6B2E090E744F090E0
:0D0A4900E6837418F0E0FA90E746F080268E
:0E0A560090E740E4F090E6BBE090E741F090BE
:0E0A6400E6BAE090E742F090E6BDE090E7438E
:0A0A7200F090E6BCE0FA90E744F0D3
:0E0A7C0090E68AE4F090E68B7408F075820133
:010A8A002249
:0E0A8B0090E6BAE0FABA010690E60174E3F0D4
:0E0A990090E6BAE0FABA020690E60174A3F005
:0E0AA70090E601E090E740F090E7417412F015
:0E0AB50090E7427434F090E68AE4F090E68B0D
:070AC3007403F075820122AB
:0D0ACA0090E6BAE0F5B090E740E5B0F0909E
:0E0AD700E7417412F090E7427434F090E68A22
:0C0AE500E4F090E68B7403F075820122AF
:0D0AF10090E6A3E090E740F090E6A5E090CD
:0E0AFE00E741F090E6A4E090E742F090E6A613
:0E0B0C00E090E743F090E6A1E090E744F0901F
:0E0B1A00E6A2E090E745F090E746E5AAF090ED
:070B2800E7477408F07A08AA
:030B2F00BA4000C9
:090B3200502DE532B53102802698
:0C0B3B008A030AEB2440FBE434E7FCE5ED
:070B4700322400F582E434C2
:0B0B4E0031F583E0FD8B828C83F0E525
:080B59003204547FF53280CE16
:0E0B610090E68AE4F090E68BEAF075820122BD
:040B6F007582002269
:0A0B7300AA82E53104547FFBB5327D
:040B7D0003D20E226F
:070B8100300E047A21C20EC0
:080B8800E5312400F582E4349C
:080B900031F583EAF08B3122FC
:0E0B9800AA82758251C002120B73D002740F34
:0D0BA6005A2430F582C002120B73D002E514
:0C0BB30039601A740F5AFB74805AC42376
:0E0BBF00541FFC90E683EC2BF090E683E0FBE5
:030BCD004420F0D1
:0E0BD000740F5AFBBB0126BA01067BA17CE61E
:020BDE00800491
:040BE0007BA27CE692
:0E0BE4007D008B828C838DF0121C88FE5306E0
:0B0BF200FE8B828C838DF0EE021C193C
:0E0BFD0090E6047480F00000000090E604E032
:0E0C0B00FE4AF00000000090E604E4F0000055
:070C19000000E4BA0201042F
:080C2000FE7012BA0402800DFF
:050C2800E4BA8601049E
:080C2D00FF7045BA886C80409D
:090C3500EE60067EA378E680045F
:040C3E007EA478E632
:0D0C42008E0388047D008B828C838DF01260
:0E0C4F001C88FE5306FE8B828C838DF0EE1205
:0E0C5D001C1943028090E649EAF000000000F6
:0A0C6B0090E649EAF00000000022C4
:090C7500EF60067AA57EE680041A
:040C7E007AA67EE6EE
:0D0C82008A038E047D008B828C838DF0121E
:0E0C8F001C88FA5302FE8B828C838DF0EA02E1
:020C9D001C1920
:010C9F002232
:070CA0003004047A51800FBB
:0E0CA70090E6BBE0FB74035BF5F0745045F083
:010CB500FA44
:090CB6003004067B007C40800440
:040CBF007B007C0238
:0D0CC30090E6BEE0FD90E6BBE0FF7E0090F5
:0E0CD000E6BAE0F879004206E9420790E6BF76
:080CDE00E07005ED24BF500495
:040CE60075820022F1
:0B0CEA00C3EE9BEF9C40047D008017D0
:0E0CF5008D007900E82EF8E93FF9C3EB98EC8A
:090D03009950068E04EBC39CFD1F
:0C0D0C0090E6B8E0FB30E72AED601B8D9C
:050D18005F756000752D
:060D1D0061407562E775FC
:050D230063008E5D8FEE
:0A0D28005E8A82C005121750D00544
:0C0D320090E68AE4F090E68BEDF0802D56
:0E0D3E00ED602AC002C005C006C007120DEA13
:0B0D4C00D007D006D005D0028D5275F4
:060D5700530075544075C5
:060D5D0055E77556008EFB
:060D6300508F518A82123C
:020D690016D2A0
:040D6B00758201226A
:0E0D6F0090E6BBE0FB7A0090E6BAE07D004221
:0E0D7D0002ED420390E6BEE0FC90E6BFE0709F
:060D8B0005EC24BF50043A
:040D91007582002245
:090D950074F02B50047C0080185E
:0E0D9E008C057E00ED2AFDEE3BFEC3E49D7445
:0A0DAC00109E50068A05C3E49DFC6A
:0C0DB60090E6B8E0FD30E725200B027C41
:010DC2000030
:070DC300753D40753EE77528
:090DCA003F008C3C8A828B8312ED
:0E0DD30012A1AC8290E68AE4F090E68BECF080
:020DE10080038D
:030DE300120DEA04
:040DE60075820122EF
:090DEA0090E68AE4F090E68BF03B
:0E0DF30090E6A0E0FA20E1F890E68BE0F582B1
:010E010022CE
:080E0200E582FA6003BA011455
:050E0A00AA0DAB0EACC7
:0C0E0F000F8A828B838CF0E4121C197592
:030E1B008201222F
:040E1E0075820022B7
:0A0E2200E582FA701AE53A701675C1
:090E2C003901758204120B98755E
:0C0E35003901758288120B987582012229
:0A0E4100BA011AE53A70167539017E
:0C0E4B00758202120B98753901758286C1
:070E5700120B9875820122C5
:040E5E007582002277
:070E62003008047A01800250
:020E69007A000D
:030E6B008A822256
:0B0E6E00E582FA24FE50047582002289
:0A0E7900EA700AC208A20892807510
:030E8300820122C7
:0C0E8600758243120B733000067A007B6B
:030E9200028004D7
:040E95007A407B0024
:0E0E99008B0490E624ECF0000000008A057E39
:0E0EA7000090E625EDF00000000090E626EC3D
:0C0EB500F00000000090E627EDF0300097
:070EC100067CFD7D098004A1
:040EC8007C7D7D00B0
:0E0ECC008C028D038B0490E634ECF0000000E5
:0D0EDA00007B0090E635EAF000000000907B
:0E0EE700E636ECF00000000090E637EAF0D2AC
:060EF50008A2089280D261
:050EFB000775820122D1
:070F000090E68D7401F02260
:0E0F070090E6BEE0FA90E6BFE06003020FFD48
:080F1500EA24BF5003020FFDA6
:0C0F1D00753B00758200C00212123612F3
:0D0F2900100B90E6BAE0FB74FE5BF582123F
:0B0F3600101DE582D0026003020FF6E0
:0E0F410090E6BBE0F582C00212101DD00290B7
:0D0F4F00E6B8E0FB30E772C00212100B9014
:0E0F5C00E6BAE0FB74014BF58212101DD002C4
:020F6A007B000A
:0E0F6C00C3EB9A5042EB2440FCE434E7FD8BCB
:080F7A00067F000EBE00010F0E
:0E0F82008A007900EEB50008EFB50104740195
:020F90008001DE
:010F9200E47A
:0E0F9300F582C002C003C004C00512104EAEAD
:0E0FA10082D005D004D003D0028C828D83EE66
:040FAF00F00B80B90A
:0D0FB300C00212107ED00290E68AE4F09099
:080FC000E68BEAF075820122C4
:070FC800120DEAAA827B0072
:0E0FCF00C3EB9A501BEB2440F582E434E7F5A7
:0E0FDD0083E0F582C002C00312101DD003D0C5
:040FEB00020B80E095
:070FEF0012107E7582012241
:070FF600C00212107ED002C0
:0E0FFD0090E68AE4F090E68BEAF0758200221E
:0D100B00D2B712109AD2B5121092C2B712CD
:051018001096C2B52294
:04101D00E5827B08E5
:0C10210012109A3392B712109AD2B51236
:0C102D001096C2B5DBEE12109AD2B7127A
:0E103900109AD2B5A2B6740033121096C2B54A
:07104700F5822275820022F0
:09104E00AD8212109AD2B77B08A2
:0E10570012109AD2B5A2B6121096C2B533127C
:0E106500109ADBEEF582ED1392B712109AD2BC
:0B107300B5121096C2B5227582002253
:0B107E0012109AC2B712109AD2B512DD
:051089001096D2B72211
:04108E007C12800A46
:041092007C10800648
:041096007C0D80024B
:02109A007C08D0
:03109C00DCFE2255
:04109F007A007B0058
:0E10A30090E68DE0FC7D00C3EA9CEB64808D3E
:0B10B100F063F08095F0400302116D29
:0D10BC00EA2480F582EB34E7F583E0FCE5E3
:0610C900336036153320F0
:0C10CF000F108C82C002C003121174D0FC
:0610DB0003D002021165C2
:0E10E1008C82C002C0031211B0AC82D003D0CA
:0710EF0002AD240524ED24ED
:0A10F60000F582E43430F583ECF0DD
:0211000080630A
:0C110200EC30E70CECA2E6920F743F5CAE
:04110E00F5338053E2
:07111200EC20E503BC1E2DDB
:0E11190074105C0303543FFD4305B074035C87
:0A1127004DF5B0EC30E637AD2405BD
:0811310024ED2400F582E434F2
:0C11390030F583A2B3E4334410FDF080D5
:011145001F8A
:05114600BC5F02801AED
:0A114B00EC30E616AC240524EC2479
:0A11550000F582E43430F583A2B304
:06115F00E4334410FCF033
:051165000ABA00010BB5
:03116A000210A3CD
:07116D0090E68D7401F022F1
:0E117400E5821392B2D2B013C2B092B2D2B0E2
:0E11820013C2B092B2D2B013C2B092B2D2B0C9
:0E11900013C2B092B2D2B013C2B092B2D2B0BB
:0E119E0013C2B092B2D2B013C2B092B2D2B0AD
:0411AC0000C2B022AB
:0E11B000E582A2B31392B2D2B0C2B0A2B313C2
:0E11BE0092B2D2B0C2B0A2B31392B2D2B0C2FB
:0E11CC00B0A2B31392B2D2B0C2B0A2B31392CB
:0E11DA00B2D2B0C2B0A2B31392B2D2B0C2B0C1
:0E11E800A2B31392B2D2B0C2B0A2B31392B2AD
:0711F600D2B0C2B0F5822265
:0A11FD00E524C39525FA24BF500233
:021207007A402B
:021209007B0068
:0E120B00C3EB9A5020EB24C0FCE434E7FDAEA8
:05121900250525EE246F
:0A121E0000F582E43430F583E0FEB1
:081228008C828D83F00B80DB4A
:0612300090E68FEAF022B7
:09123600AA82200A04758200223C
:05123F00AB26BA070018
:0E124400500C741F5BFCEAC42354E0FA4CFB10
:08125200300005430310800386
:03125A005303EF4C
:08125D00300105430308800382
:031265005303F739
:08126800EBB5260474018001BE
:01127000E499
:06127100FAE53BB40100A8
:0A127700E433FC5A60047582012282
:0A128100C0031213BDD0038B26AA90
:0B128B00268A8375820012139785826B
:051296002785832812EA
:06129B0013D07582012250
:0A12A100AA82AB83754300E53C70A0
:0412AB0003F58222A3
:0E12AF00C002C0031213BDD003D0028A05EBAB
:0E12BD00C454F0CDC4CD6DCD54F0CD6DFE7493
:0E12CB00014DF5828E83C002C003121397D02E
:0812D90003D002AD3DAE3EAFB3
:0412E1003FA83C7571
:0212E5004000C7
:0612E700E8700302138809
:0512ED000ABA00010B2C
:0D12F200C002C003C005C006C007C0001246
:0E12FF00138FD000D007D006D005D003D00248
:0E130D00E824FE50198A01EBC454F0C9C4C98B
:0C131B0069C954F0C969FC740149F5412E
:041327008C4280096B
:07132B00A9267C0089427530
:02133200410078
:0A133400854182854283C002C00398
:0E133E00C005C006C007C000121397AC82A9FC
:0E134C0083D000D007D006D005D003D002EC2D
:07135A0020E011852641751A
:09136100420085418375820012EF
:04136A001397801A3B
:0E136E0089048D828E838FF0EC121C19A3ADC2
:08137C0082AE83180540854094
:04138400430212E727
:071388001213D085438222FD
:02138F007C12CE
:0513910020B602DCFBA8
:011396002234
:04139700E5827B0868
:0E139B00C2B5A2B61392B7D2B5DBF5F5F0E5F8
:0313A900837B083B
:0E13AC00C2B5A2B61392B7D2B5DBF5F58385B4
:0313BA00F082229C
:0C13BD00E526C4035407FA530207EA2493
:0713C90029F8A6B0C2812241
:0C13D000E526C4035407FA530207EA2480
:0C13DC0029F8E6FAA2E592B5EAA2E49234
:0813E800B4EA3392B7D281226E
:0C13F000C0E0C082C083D2055391EF9092
:0C13FC00E65D7401F0D083D082D0E032B6
:0E140800C0E0C082C0835391EF90E65D740295
:08141600F0D083D082D0E03257
:01141E00329B
:0C141F00C0E0C082C083D2065391EF9061
:0C142B00E65D7408F0D083D082D0E0327F
:03143700C2DC32E2
:0C143A00C023C0E0C0F0C082C083C0022C
:0E144600C003C004C005C006C007C000C0013E
:0E145400C0D075D000121B295391EF90E65DB9
:0E1462007410F0D0D0D001D000D007D006D04A
:0E14700005D004D003D002D083D082D0F0D0BB
:04147E00E0D0233265
:0C148200C023C0E0C0F0C082C083C002E4
:0E148E00C003C004C005C006C007C000C001F6
:0E149C00C0D075D000121B3E5391EF90E65D5C
:0E14AA007420F0D0D0D001D000D007D006D0F2
:0E14B80005D004D003D002D083D082D0F0D073
:0414C600E0D023321D
:0114CA0032EF
:0114CB0032EE
:0114CC0032ED
:0114CD0032EC
:0114CE0032EB
:0114CF0032EA
:0114D00032E9
:0114D10032E8
:0114D20032E7
:0114D30032E6
:0114D40032E5
:0114D50032E4
:0114D60032E3
:0114D70032E2
:0114D80032E1
:0114D90032E0
:0114DA0032DF
:0114DB0032DE
:0114DC0032DD
:0114DD0032DC
:0114DE0032DB
:0114DF0032DA
:0114E00032D9
:0114E10032D8
:0114E20032D7
:0114E30032D6
:0114E40032D5
:0114E50032D4
:0114E60032D3
:0114E70032D2
:0114E80032D1
:0114E90032D0
:0114EA0032CF
:0114EB0032CE
:0114EC0032CD
:0114ED0032CC
:0E2100001201000200000040FB0910603601D1
:04210E0001020301C6
:0A2112000A06000200000040010070
:09211C0009023700020100C005B0
:0E2125000904000002FFFFFF0007050402008E
:0E2133000200070588020002000904010002F4
:0E214100FFFFFF0007050202000200070586EF
:04214F000200020088
:0921540009023700020100C00578
:0E215D000904000002FFFFFF00070504024016
:0E216B00000007058802400000090401000280
:0E217900FFFFFF000705020240000007058679
:042187000240000012
:09218C000902200001010080326B
:0E2195000904000002FFFFFF000705010240E1
:0921A30000000705810240000064
:0921AC0009021B0002010080324F
:0E21B5000904000000FFFFFF00090401000004
:0421C300FFFFFF001B
:0121C7000611
:0421C80004030904FF
:0121CD001001
:0E21CE000E0341006C00740065007200610099
:0121DD00847D
:0E21DE002E035500530042002D0042006C00FD
:0E21EC0061007300740065007200200049005D
:0E21FA0049002000280065006D007000740090
:042208007900290030
:01226100007C
:042262000403300041
:0C14EE00AA82C28DE4F58AF58CEA2AFA85
:0814FA0090E678E0FB20E6F823
:0E15020090E678E04480F0D28C90E678E0FB32
:0E15100030E20C900001C002121C32D00280AA
:01151E00E3E9
:05151F0090E679EAF0FE
:0B15240090E678E0FB20E003308DF53E
:0E152F00308D0BC28C90E678E04440F0C32271
:0E153D0090E678E0FB20E2BD90E678E0FB202F
:0C154B00E10A90E678E0FB4440F080A349
:041557007B007C0099
:0A155B00C3EB9544EC954550478B17
:08156500058C060BBB00010C14
:09156D00ED2546FDEE3547FEAF09
:0C157600488D828E838FF0121C88FD903F
:03158200E679F017
:0E15850090E678E0FD30E0F890E678E0FD308A
:05159300E20302150255
:0E15980090E678E0FD20E1BB90E678E0FB44B1
:0515A60040F00214FA00
:0C15AB00C28C30110890E678E0FA444051
:0115B700F043
:0215B800D3223C
:0C15BA00E5822582FA4302017401B54964
:0915C60008E4B54A047401800137
:0115CF00E437
:0115D000FB1F
:0815D10090E678E0FC20E6F84A
:0E15D9007C007D0090E678E04480F090E6789B
:0D15E700E0FE30E210900001C002C00312CF
:0815F4001C32D003D00280DD9F
:0515FC0090E679EAF021
:0E16010090E678E0FE30E0F890E678E0FE201B
:0E160F00E2C890E678E0FE20E10A90E678E07E
:06161D00FE4440F080AE27
:0B162300EB600890E678E0FE4420F049
:09162E0090E679E0E4F54EF54F79
:0A1637007401254EF8E4354FF9C3A5
:08164100E89549E9954A50566D
:0E16490090E678E0F830E0F890E678E0F830CF
:05165700E2030215D9B9
:0A165C007402254EF8E4354FF9E85A
:0A166600B5490CE9B54A0890E67892
:05167000E0F84420F049
:05167500A84EA94F057D
:06167A004EE4B54E02052E
:011680004F1A
:06168100AC4EAD4FE82560
:071687004BF8E9354CF9AE08
:0C168E004D90E679E0FF888289838EF0A1
:05169A00121C198098EC
:0E169F0090E678E0FE30E0F890E678E0FE306D
:0516AD00E2030215D963
:0C16B20090E678E04440F0EC254BFCEDA5
:0A16BE00354CFDAA4D90E679E08C52
:0A16C800828D838AF0121C19D322D0
:0716D200858257E4F55BF58A
:0416D9005CAD50AE06
:0116DD0051BB
:0616DE00C3E55B9552E537
:0816E4005C955350657F003056
:0816EC0004067F018E028A58FA
:0C16F4008F020FEA2458F88D02A6028F26
:09170000020FEA2458F8AA5BABC1
:051709005C055BE4B586
:04170E005B02055C19
:09171200EA2554FAEB3555FBAC55
:0C171B00568A828B838CF0121C88F68F9B
:0517270044754500754A
:03172C00465875A7
:06172F004700754840D29E
:0917350011855782C005C006129F
:09173E0014EED006D00540012292
:071747000DBD00930E809020
:02174E00D322A4
:0A175000AA827B003004067B01AC86
:03175A005E8C643E
:0A175D008B040BEC2464F8AC5DA6CD
:07176700048B447545007579
:03176E0046647559
:061771004700754840C26C
:0C177700118A82C0021214EED00250163B
:04178300855F4985B0
:03178700604A8530
:03178A00614B852B
:03178D00624C8526
:05179000634D8A821286
:0417950015BA403011
:05179900AA61AB62AC87
:03179E0063855F01
:0317A100668560FA
:0117A40067DD
:0517A500AF66AD671501
:0717AA006674FFB56602152D
:0117B10067D0
:0E17B200EF4D60118A828B838CF0E4121C19BB
:0717C000A3AA82AB8380DEC7
:0217C700C3223B
:0217C900D32229
:0601EA00E478FFF6D8FDE9
:0801C8007900E94400601B7A94
:0501D00000901CA8785E
:0301D500807592A0
:0A01D80031E493F2A308B800020519
:0801E20092D9F4DAF27592FFE4
:04022500750954758E
:030229000A217532
:03022C000B5475FB
:02022F000C21A0
:0D17CB0090E6B8E0FA546060047AFF8005F3
:0517D80090E6B9E0FA03
:0817DD00EA24F450030218D9BC
:0717E500EA2A2A9017EC73B9
:0717EC00021810021825028B
:0617F30018D902183A02A9
:0617F90018D90218D90204
:0617FF00184F0218D90288
:06180500185502186D02E7
:05180B0018870218BB64
:0A18100012194DE58260030218EE84
:0B181A0090E6A0E0FA4401F00218EE96
:0A1825001219B7E58260030218EE05
:0B182F0090E6A0E0FA4401F00218EE81
:0A183A001219F5E58260030218EEB2
:0B18440090E6A0E0FA4401F00218EE6C
:06184F00121B590218EE05
:0E185500120E62AA8290E740EAF090E68AE462
:0A186300F090E68B7401F00218EE1D
:0E186D0090E6BAE0F582120E6EE5826003028C
:02187B0018EE65
:0A187D0090E6A0E0FA4401F0806755
:0918870090E6BCE0FA750D08754D
:081890000E00750F408A821260
:0E1898000E02E582700A90E6A0E0FA4401F02C
:0218A60080467A
:0C18A80090E740E508F090E68AE4F0903C
:0718B400E68B7401F08033A4
:0C18BB0090E6BCE0FA90E6BAE0F53A8A4C
:0E18C70082120E22E582701F90E6A0E0FA4425
:0418D50001F0801589
:0E18D90090E6B9E0F582120661E58270089093
:0718E700E6A0E0FA4401F065
:0818EE0090E6A0E04480F02226
:0E18F600AA82747F5AFB24F74049EB2B2B90FB
:031904001907734D
:071907000219220219260259
:06190E001939021949021B
:06191400193D0219490211
:06191A0019410219490207
:02192000194567
:0419220090E6A02289
:0A192600EA30E7067AA27BE68004AF
:041930007AA17BE637
:051934008A828B832272
:0419390090E6A3226F
:04193D0090E6A4226A
:0419410090E6A52265
:0419450090E6A62260
:0419490090000022E8
:0A194D0090E6B8E0FABA8002800AC2
:05195700BA81028005C9
:05195C00BA8250801565
:0E19610090E740E4F090E741F090E68AF090C5
:07196F00E68B7402F0803DDD
:0E19760090E6BCE0F5821218F6AA82AB83EA76
:061984004B7003F5822206
:0D198A008A828B83E0FA30E0047A0180024B
:021997007A00D4
:0E19990090E740EAF090E741E4F090E68AF033
:0819A70090E68B7402F080044D
:0419AF00758200221B
:0419B3007582012216
:0C19B70090E6B8E0FA6005BA0227800A4A
:0A19C30090E6A0E0FA4401F0802451
:0D19CD0090E6BAE0700B90E6BCE0F58212E7
:0419DA000B988013D3
:0A19DE0090E6A0E0FA4401F0800951
:0919E80090E6B9E0F58202066107
:0419F10075820122D8
:0C19F50090E6B8E0FA6005BA024D800EE2
:0A1A010090E6BAE0FABA0202804A49
:041A0B0075820022BE
:0D1A0F0090E6BAE0703390E6BCE0F582127C
:0E1A1C0018F6AA82AB83758253C002C0031273
:0D1A2A000B73D003D002EA4B7003F582224B
:0E1A37008A828B83E0FC4304018A828B83EC5D
:031A4500F0800D21
:041A48007582002281
:091A4C0090E6B9E0F582020661A2
:041A55007582012273
:0A1A5900AA82AB83850D82850E83FF
:0C1A6300A3A3A3E493FD7C00850D828505
:0A1A6F000E83A3A3E4937F004CF55F
:091A79000FEF4DF5107E007F0017
:0A1A8200C3EE950FEF95105032BE31
:0E1A8C000110BF000DEE2AF582EF3BF58374CA
:041A9A0007F08018B9
:0C1A9E00EE2AF8EF3BF9EE250DF582EF83
:0C1AAA00350EF583E493FC88828983F0FC
:071AB6000EBE00C80F80C541
:011ABD002206
:051ABE0030020775096C
:031AC3008C750A15
:021AC6002122DB
:051AC800300307750961
:031ACD00AC750AEB
:021AD0002122D1
:051AD20030000775095A
:031AD7001C750A71
:021ADA002122C7
:041ADC0075095475BF
:031AE0000A2122B6
:051AE30030020E750D3C
:031AE8008C750EEC
:051AEB0021902284128D
:041AF0001A59802ED1
:051AF40030030E750D2A
:031AF900AC750EBB
:051AFC0021902284127C
:041B01001A59801DD0
:051B050030000E750D1B
:031B0A0054750E01
:051B0D0021902284126A
:041B12001A59800CD0
:041B1600750D1C75B8
:031B1A000E219009
:051B1D002284121A5998
:041B2200750B847546
:031B26000C22226C
:051B2900D310AF01C361
:0E1B2E00C0D07582001204EA120501D0D092D8
:021B3C00AF22D6
:051B3E00D310AF01C34C
:0D1B4300C0D07582011204EAD0D092AF220A
:091B500090E6BAE024FF920222A3
:0A1B590090E6BBE0FABA0102801822
:051B6300BA0202802619
:051B6800BA03028043F6
:061B6D00BA0603021BFE94
:051B7300BA0702802703
:031B7800021C113B
:0A1B7B007A007B2190E6B3EBF07ACC
:091B8500007B2190E6B4EAF02295
:0A1B8E00121ABE90E6B3E50AF0AAB1
:071B98000990E6B4EAF02217
:0A1B9F00121AE390E6B3E50CF0AA79
:071BA9000B90E6B4EAF02204
:0A1BB0007AC87B217C8090E6BAE041
:031BBA00FD7E00AD
:0E1BBD00C3EE9D502474FF2AFF74FF3BF88C8A
:0E1BCB00018F82888389F0121C88FF7005FA52
:041BD900FBFC800988
:091BDD00EF2AFAE43BFB0E80D76D
:0E1BE600EA4B4C600B90E6B3EBF090E6B4EAED
:021BF400F022DD
:081BF60090E6A0E04401F0229A
:0A1BFE007A127B2190E6B3EBF07A37
:091C0800127B2190E6B4EAF022FF
:081C110090E6A0E04401F0227E
:0E1C190020F71030F6118883A88220F507F618
:051C2700A88375830095
:011C2C002295
:031C2D00F280F74B
:021C3000F022A0
:0300430002200098
:0300530002200088
:092000000213F0000214080002B2
:08200900141E0002141F000266
:08201100143A000214820002DF
:0820190014CA000214DF0002EA
:0820210014CB000214CC0002F4
:0820290014CD000214CE0002E8
:0820310014CF000214D00002DC
:0820390014D1000214D20002D0
:0820410014D3000214DF0002B9
:0820490014D4000214D50002BA
:0820510014D6000214D70002AE
:0820590014D8000214D90002A2
:0820610014DA000214DF000292
:0820690014DF000214DF000285
:0820710014DB000214DC000284
:0820790014DD000214DE000278
:0820810014E0000214E100026A
:0820890014E2000214E300025E
:0820910014E4000214E5000252
:0820990014E6000214E7000246
:0820A10014E8000214E900023A
:0820A90014EA000214EB00022E
:0720B10014EC000214ED0025
:0801F0007800E84400600A7980
:0301F800007592FD
:0601FB0030E4F309D8FC1A
:080201007880E84401600C79EB
:0B02090002903000E4F0A3D8FCD9FA0A
:0E1C3200AA82AB8390E600E05418C423541F2E
:041C4000FCB40100EF
:0B1C4400E433FC60067CB17D00801CD6
:0E1C4F0090E600E05418C423541FFEBE0106A8
:061C5D007E617F0180049E
:041C63007EC27F02BC
:041C67008E048F0553
:041C6B008C0D8D0E41
:081C6F00150D74FFB50D0215FF
:011C77000E5E
:0A1C7800E50D450E70F11ABAFF01E8
:011C82001B46
:051C8300EA4B70E422B1
:0301BB00758167E4
:0A01BE00121CA4E58260030201B6E2
:0E1C880020F71430F6148883A88220F507E6B2
:061C9600A8837583002203
:031C9C00E280F7EC
:031C9F00E49322A9
:021CA200E0223E
:041CA4007582002223
:00000001FF
